:020000040000FA
:0600000080EF00F0120089
:0A00060001001E0100000B040000C1
:0400100002000000EA
:0C001400060EF66E000EF76E000EF86E81
:1000200004010900F550066F0900F550076F03E160
:10003000066701D03DD00900F550016F0900F55069
:10004000026F0900F550036F09000900F550E96ED1
:100050000900F550EA6E090009000900F550046F27
:100060000900F550056F09000900F6CF08F4F7CF35
:1000700009F4F8CF0AF401C4F6FF02C4F7FF03C481
:10008000F8FF0401045302E1055307E00900F550AD
:10009000EE6E0407F8E20507F9D708C4F6FF09C4B5
:1000A000F7FF0AC4F8FF04010607000E075BBFD77D
:0200B00012003C
:0E00B200F28EF28C92968096936A010E0401F3
:1000C0000B6F0C6B0C3504E20B510F08000E0C5536
:1000D00006E30BC481FF0B2B000E0C23F3D7120099
:1000E000000EF36E00EE00F0060E01D81200EA607A
:1000F00002D0EE6AFCD7F350E9601200EE6AFCD73A
:1001000013EE81F023EE81F0F86A019C0AEC00F016
:0C0110008EEC00F059EC00F0FBD7120060
:02011C001200CF
:02011E000000DF
:020000040030CA
:0100010022DC
:010003000EEE
:010006008178
:00000001FF
