:020000040000FA
:06000000CBEF02F012003C
:0A0006000100B40500001204000020
:0400100002000000EA
:0C001400000000000000000000000000E0
:1000200000000000000000000000000000000000D0
:1000300000D01200050EE66EABEC02F0E5521200A5
:100040000F0EE66EABEC02F0E55212005CEC02F033
:100050000401126B136B060ED8801255000E135557
:1000600011E36CEC02F0E66E0B0E04011225E96E52
:10007000040E1321EA6EE552E750EF6E122B000ECC
:100080001323E9D7836A956A280EE66E7CEC00F0AC
:10009000E55279EC02F00009FCE1E66A32EC01F08D
:1000A000E552060EE66ECDEC01F0E55279EC02F079
:1000B0000009FCE10F0EE66ECDEC01F0E55279ECA3
:1000C00002F00009FCE1E66A32EC01F0E55279EC5D
:1000D00002F00009FCE10B0EE66E040EE66EF3EC96
:1000E00001F0E552E55279EC02F00009FCE16E0EF8
:0800F000E66EABEC02F0E2D772
:0800F800D9CFE6FFE1CFD9FFEB
:100100000F0E831695169594959295908C948C92DB
:100110008C9020EC00F0300EE66ECDEC01F0E55254
:10012000050EE66E94EC02F0E552300EE66ECDEC74
:1001300001F0E552010EE66E94EC02F0E552320E4B
:10014000E66ECDEC01F0E55279EC02F00009FCE13D
:1001500079EC02F00009FCE1FE0EDBCFE6FFCDEC0E
:1001600001F0E55279EC02F00009FCE1080EE66EC0
:10017000CDEC01F0E55279EC02F00009FCE10F0E44
:10018000E66ECDEC01F0E55279EC02F00009FCE1FD
:10019000010EE66ECDEC01F0E55279EC02F00009BB
:1001A000FCE1040EE66ECDEC01F0E55279EC02F0D4
:1001B0000009FCE1800EE66E32EC01F0E552E552FA
:0601C000E7CFD9FF120099
:0A01C600060EF66E000EF76E000E36
:1001D000F86E04010900F550066F0900F550076F2D
:1001E00003E1066701D03DD00900F550016F090019
:1001F000F550026F0900F550036F09000900F55032
:10020000E96E0900F550EA6E090009000900F55091
:10021000046F0900F550056F09000900F6CF08F4D6
:10022000F7CF09F4F8CF0AF401C4F6FF02C4F7FFD0
:1002300003C4F8FF0401045302E1055307E0090079
:10024000F550EE6E0407F8E20507F9D708C4F6FF8B
:1002500009C4F7FF0AC4F8FF04010607000E075B94
:04026000BFD71200F2
:0C026400D9CFE6FFE1CFD9FF0F0E9516B1
:100270008316FE0EDB508009F00B83128C948C9257
:100280000AEC00F08C800AEC00F08C900F0E8316C4
:10029000FE0EDB38F00BF00B83120AEC00F08C80C2
:1002A0000AEC00F08C90F00E9512E552E7CFD9FFE2
:0202B00012003A
:0E02B200D9CFE6FFE1CFD9FF0F0E95168316C8
:1002C000FE0EDB504009F00B83128C948C920AECEA
:1002D00000F08C800AEC00F08C900F0E8316FE0E5E
:1002E000DB38F00BF00B83120AEC00F08C800AEC88
:1002F00000F08C90F00E9512E552E7CFD9FF120076
:10030000D9CFE6FFE1CFD9FFFD0EDBCFF6FFFE0E22
:10031000DBCFF7FF0800F55016E079EC02F000099A
:10032000FCE1FD0EDBCFF6FFFE0EDBCFF7FF080092
:10033000F550E66EA7EC01F0E552FD0EDB2AFE0E4D
:0E034000E3E3DB2AE1D7E552E7CFD9FF120055
:02034E00D9CF05
:10035000E6FFE1CFD9FF0F0E95168316FE0EDB5098
:10036000F00B83128C828C940AEC00F08C800AECE7
:1003700000F08C900F0E8316FE0EDB38F00BF00BA6
:1003800083120AEC00F08C800AEC00F08C90F00EE6
:0A0390009512E552E7CFD9FF1200E5
:06039A00D9CFE6FFE1CF20
:1003A000D9FF0F0E95168316FE0EDB50F00B83124D
:1003B0008C948C920AEC00F08C800AEC00F08C900B
:1003C0000F0E8316FE0EDB38F00BF00B83120AECD7
:1003D00000F08C800AEC00F08C90F00E9512E55243
:0603E000E7CFD9FF120077
:0A03E600D9CFE6FFE1CFD9FFFD0EED
:1003F000DBCFE9FFFE0EDBCFEAFFEF5015E079EC33
:1004000002F00009FCE1FD0EDBCFE9FFFE0EDBCFC1
:10041000EAFFEF50E66EA7EC01F0E552FD0EDB2A95
:10042000FE0EE5E3DB2AE3D7E552E7CFD9FF120062
:10043000D9CFE6FFE1CFD9FFE6528C848C820AEC5B
:1004400000F08C800AEC00F0F00E8314DF6E8C90CC
:100450000AEC00F08C800AEC00F083380F0B0F0BD5
:10046000DF128C908C928C94DF50E552E552E7CFEE
:04047000D9FF12009E
:0C047400D9CFE6FFE1CFD9FFE6528C841F
:100480008C920AEC00F08C800AEC00F0F00E8314E1
:10049000DF6E8C900AEC00F08C800AEC00F0833860
:1004A0000F0B0F0BDF128C908C947F0EDF14E55234
:0804B000E552E7CFD9FF12006D
:0804B8004D0E806F610E816F93
:1004C000700E826F4E0E836F610E846F6D0E856F9E
:1004D000650E866F000E876F070E126472EF02F0D2
:1004E00077EF02F004EE80F01251EB501200FF0E95
:0204F0001200F8
:0E04F2008C848C920AEC00F08C800AEC00F0F6
:1005000083AE09D08C900AEC00F08C800AEC00F0ED
:100510008C908C94010C8C900AEC00F08C800AEC8E
:0805200000F08C908C94000C9B
:08052800FF0EE350036EEF0E1D
:1005300001D0F30EE76EE72E9BEF02F00C0E026E79
:10054000E76AE72EA1EF02F0022EA0EF02F0032EE1
:0605500099EF02F0120019
:0A055600FF0EE350036E480E01D0C3
:100560004C0EE76EE72EFED7E76AE72EFED7032E86
:06057000F7D700001200A5
:0A057600000EF36E00EE00F0060E1A
:1005800001D81200EA6002D0EE6AFCD7F350E960AD
:060590001200EE6AFCD728
:0A05960013EE81F023EE81F0F86A05
:1005A000019CE3EC00F0D9EC02F026EC00F0FBD764
:0205B000120037
:0205B200120035
:0205B400000045
:020000040030CA
:010003000EEE
:010006008178
:00000001FF
